{
  "contractName": "TweeBle",
  "abi": [
    {
      "anonymous": false,
      "inputs": [
        {
          "indexed": false,
          "internalType": "uint256",
          "name": "id",
          "type": "uint256"
        },
        {
          "indexed": false,
          "internalType": "string",
          "name": "content",
          "type": "string"
        },
        {
          "indexed": false,
          "internalType": "uint256",
          "name": "timestamp",
          "type": "uint256"
        },
        {
          "indexed": false,
          "internalType": "uint256",
          "name": "likes",
          "type": "uint256"
        },
        {
          "indexed": false,
          "internalType": "uint256",
          "name": "tipAmount",
          "type": "uint256"
        },
        {
          "indexed": false,
          "internalType": "address payable",
          "name": "author",
          "type": "address"
        }
      ],
      "name": "TweetLiked",
      "type": "event"
    },
    {
      "anonymous": false,
      "inputs": [
        {
          "indexed": false,
          "internalType": "uint256",
          "name": "id",
          "type": "uint256"
        },
        {
          "indexed": false,
          "internalType": "string",
          "name": "content",
          "type": "string"
        },
        {
          "indexed": false,
          "internalType": "uint256",
          "name": "timestamp",
          "type": "uint256"
        },
        {
          "indexed": false,
          "internalType": "uint256",
          "name": "likes",
          "type": "uint256"
        },
        {
          "indexed": false,
          "internalType": "uint256",
          "name": "tipAmount",
          "type": "uint256"
        },
        {
          "indexed": false,
          "internalType": "address payable",
          "name": "author",
          "type": "address"
        }
      ],
      "name": "TweetPosted",
      "type": "event"
    },
    {
      "anonymous": false,
      "inputs": [
        {
          "indexed": false,
          "internalType": "uint256",
          "name": "id",
          "type": "uint256"
        },
        {
          "indexed": false,
          "internalType": "string",
          "name": "content",
          "type": "string"
        },
        {
          "indexed": false,
          "internalType": "uint256",
          "name": "timestamp",
          "type": "uint256"
        },
        {
          "indexed": false,
          "internalType": "uint256",
          "name": "likes",
          "type": "uint256"
        },
        {
          "indexed": false,
          "internalType": "uint256",
          "name": "tipAmount",
          "type": "uint256"
        },
        {
          "indexed": false,
          "internalType": "address payable",
          "name": "author",
          "type": "address"
        }
      ],
      "name": "TweetTipped",
      "type": "event"
    },
    {
      "inputs": [],
      "name": "name",
      "outputs": [
        {
          "internalType": "string",
          "name": "",
          "type": "string"
        }
      ],
      "stateMutability": "view",
      "type": "function",
      "constant": true
    },
    {
      "inputs": [],
      "name": "tweetCount",
      "outputs": [
        {
          "internalType": "uint256",
          "name": "",
          "type": "uint256"
        }
      ],
      "stateMutability": "view",
      "type": "function",
      "constant": true
    },
    {
      "inputs": [
        {
          "internalType": "uint256",
          "name": "",
          "type": "uint256"
        }
      ],
      "name": "tweets",
      "outputs": [
        {
          "internalType": "uint256",
          "name": "id",
          "type": "uint256"
        },
        {
          "internalType": "string",
          "name": "content",
          "type": "string"
        },
        {
          "internalType": "uint256",
          "name": "timestamp",
          "type": "uint256"
        },
        {
          "internalType": "uint256",
          "name": "likes",
          "type": "uint256"
        },
        {
          "internalType": "uint256",
          "name": "tipAmount",
          "type": "uint256"
        },
        {
          "internalType": "address payable",
          "name": "author",
          "type": "address"
        }
      ],
      "stateMutability": "view",
      "type": "function",
      "constant": true
    },
    {
      "inputs": [
        {
          "internalType": "uint256",
          "name": "id",
          "type": "uint256"
        }
      ],
      "name": "getTweet",
      "outputs": [
        {
          "components": [
            {
              "internalType": "uint256",
              "name": "id",
              "type": "uint256"
            },
            {
              "internalType": "string",
              "name": "content",
              "type": "string"
            },
            {
              "internalType": "uint256",
              "name": "timestamp",
              "type": "uint256"
            },
            {
              "internalType": "uint256",
              "name": "likes",
              "type": "uint256"
            },
            {
              "internalType": "uint256",
              "name": "tipAmount",
              "type": "uint256"
            },
            {
              "internalType": "address payable",
              "name": "author",
              "type": "address"
            }
          ],
          "internalType": "struct TweeBle.Tweet",
          "name": "",
          "type": "tuple"
        }
      ],
      "stateMutability": "view",
      "type": "function",
      "constant": true
    },
    {
      "inputs": [
        {
          "internalType": "string",
          "name": "_content",
          "type": "string"
        }
      ],
      "name": "postTweet",
      "outputs": [],
      "stateMutability": "nonpayable",
      "type": "function"
    },
    {
      "inputs": [
        {
          "internalType": "uint256",
          "name": "_id",
          "type": "uint256"
        }
      ],
      "name": "likeTweet",
      "outputs": [],
      "stateMutability": "nonpayable",
      "type": "function"
    },
    {
      "inputs": [
        {
          "internalType": "uint256",
          "name": "_id",
          "type": "uint256"
        }
      ],
      "name": "tipTweet",
      "outputs": [],
      "stateMutability": "payable",
      "type": "function",
      "payable": true
    }
  ],
  "bytecode": "0x60c0604052600760808190526654776565426c6560c81b60a09081526100289160009190610040565b50600060015534801561003a57600080fd5b50610114565b82805461004c906100d9565b90600052602060002090601f01602090048101928261006e57600085556100b4565b82601f1061008757805160ff19168380011785556100b4565b828001600101855582156100b4579182015b828111156100b4578251825591602001919060010190610099565b506100c09291506100c4565b5090565b5b808211156100c057600081556001016100c5565b600181811c908216806100ed57607f821691505b6020821081141561010e57634e487b7160e01b600052602260045260246000fd5b50919050565b610aad806101236000396000f3fe6080604052600436106100705760003560e01c80635ffc6ceb1161004e5780635ffc6ceb146100e6578063b3465fd414610106578063c3ad5ecb14610119578063e8d857b01461014657600080fd5b806306fdde03146100755780630cbc3dc4146100a05780634a7782b3146100c2575b600080fd5b34801561008157600080fd5b5061008a610178565b6040516100979190610850565b60405180910390f35b3480156100ac57600080fd5b506100c06100bb366004610880565b610206565b005b3480156100ce57600080fd5b506100d860015481565b604051908152602001610097565b3480156100f257600080fd5b506100c0610101366004610931565b610312565b6100c0610114366004610931565b610429565b34801561012557600080fd5b50610139610134366004610931565b61056f565b604051610097919061094a565b34801561015257600080fd5b50610166610161366004610931565b6106a3565b604051610097969594939291906109ac565b60008054610185906109f3565b80601f01602080910402602001604051908101604052809291908181526020018280546101b1906109f3565b80156101fe5780601f106101d3576101008083540402835291602001916101fe565b820191906000526020600020905b8154815290600101906020018083116101e157829003601f168201915b505050505081565b600081511161021457600080fd5b6001805490600061022483610a44565b90915550506040805160c0810182526001805480835260208084018681524285870152600060608601819052608086018190523360a08701529283526002825294909120835181559351805193949361028493850192919091019061076a565b506040828101516002830155606083015160038301556080830151600483015560a090920151600590910180546001600160a01b0319166001600160a01b0390921691909117905560015490517fb2b09b347700809ebff0d5c9fa3b00dd6cde520ec5e5e863b12ac5b9f08457cc916103079184904290600090819033906109ac565b60405180910390a150565b60008111801561032457506001548111155b61032d57600080fd5b60006103388261056f565b60608101805191925061034a82610a44565b9052508051600090815260026020908152604090912082518155818301518051849361037d92600185019291019061076a565b5060408201518160020155606082015181600301556080820151816004015560a08201518160050160006101000a8154816001600160a01b0302191690836001600160a01b031602179055509050507fd97594b27da8ca89c8668580a2139fbd3032250e33b83a6737aaeab0132624d8816000015182602001518360400151846060015185608001518660a0015160405161041d969594939291906109ac565b60405180910390a15050565b60008111801561043b57506001548111155b61044457600080fd5b600061044f8261056f565b60a08101516040519192506001600160a01b0316903480156108fc02916000818181858888f1935050505015801561048b573d6000803e3d6000fd5b5034816080015161049c9190610a5f565b608082015260008281526002602090815260409091208251815581830151805184936104cf92600185019291019061076a565b5060408201518160020155606082015181600301556080820151816004015560a08201518160050160006101000a8154816001600160a01b0302191690836001600160a01b031602179055509050507f0e8e7c2639465b69d6928c660853d42c9d195da3398713d7331e5c124cbd50d0816000015182602001518360400151846060015185608001518660a0015160405161041d969594939291906109ac565b6105b16040518060c00160405280600081526020016060815260200160008152602001600081526020016000815260200160006001600160a01b031681525090565b600260008381526020019081526020016000206040518060c0016040529081600082015481526020016001820180546105e9906109f3565b80601f0160208091040260200160405190810160405280929190818152602001828054610615906109f3565b80156106625780601f1061063757610100808354040283529160200191610662565b820191906000526020600020905b81548152906001019060200180831161064557829003601f168201915b50505091835250506002820154602082015260038201546040820152600482015460608201526005909101546001600160a01b031660809091015292915050565b600260205260009081526040902080546001820180549192916106c5906109f3565b80601f01602080910402602001604051908101604052809291908181526020018280546106f1906109f3565b801561073e5780601f106107135761010080835404028352916020019161073e565b820191906000526020600020905b81548152906001019060200180831161072157829003601f168201915b50505050600283015460038401546004850154600590950154939491939092506001600160a01b031686565b828054610776906109f3565b90600052602060002090601f01602090048101928261079857600085556107de565b82601f106107b157805160ff19168380011785556107de565b828001600101855582156107de579182015b828111156107de5782518255916020019190600101906107c3565b506107ea9291506107ee565b5090565b5b808211156107ea57600081556001016107ef565b6000815180845260005b818110156108295760208185018101518683018201520161080d565b8181111561083b576000602083870101525b50601f01601f19169290920160200192915050565b6020815260006108636020830184610803565b9392505050565b634e487b7160e01b600052604160045260246000fd5b60006020828403121561089257600080fd5b813567ffffffffffffffff808211156108aa57600080fd5b818401915084601f8301126108be57600080fd5b8135818111156108d0576108d061086a565b604051601f8201601f19908116603f011681019083821181831017156108f8576108f861086a565b8160405282815287602084870101111561091157600080fd5b826020860160208301376000928101602001929092525095945050505050565b60006020828403121561094357600080fd5b5035919050565b60208152815160208201526000602083015160c0604084015261097060e0840182610803565b90506040840151606084015260608401516080840152608084015160a084015260018060a01b0360a08501511660c08401528091505092915050565b86815260c0602082015260006109c560c0830188610803565b604083019690965250606081019390935260808301919091526001600160a01b031660a09091015292915050565b600181811c90821680610a0757607f821691505b60208210811415610a2857634e487b7160e01b600052602260045260246000fd5b50919050565b634e487b7160e01b600052601160045260246000fd5b6000600019821415610a5857610a58610a2e565b5060010190565b60008219821115610a7257610a72610a2e565b50019056fea2646970667358221220f4dd9ef969d86c853dcb54b3abed73b89c38980532552892c20dfb8c8e69cb9364736f6c634300080a0033",
  "immutableReferences": {},
  "source": "// SPDX-License-Identifier: MIT\r\npragma solidity >=0.4.22 <0.9.0;\r\n\r\ncontract TweeBle {\r\n    string public name = \"TweeBle\";\r\n    uint public tweetCount = 0;\r\n    mapping(uint256 => Tweet) public tweets;\r\n\r\n    struct Tweet {\r\n        uint id;\r\n        string content;\r\n        uint256 timestamp;\r\n        uint likes;\r\n        uint256 tipAmount;\r\n        address payable author;\r\n    }\r\n\r\n    event TweetPosted(\r\n        uint id,\r\n        string content,\r\n        uint256 timestamp,\r\n        uint likes,\r\n        uint256 tipAmount,\r\n        address payable author\r\n    );\r\n\r\n    event TweetLiked(\r\n        uint id,\r\n        string content,\r\n        uint256 timestamp,\r\n        uint likes,\r\n        uint256 tipAmount,\r\n        address payable author\r\n    );\r\n\r\n    event TweetTipped(\r\n        uint id,\r\n        string content,\r\n        uint256 timestamp,\r\n        uint likes,\r\n        uint256 tipAmount,\r\n        address payable author\r\n    );\r\n\r\n    function getTweet(uint id) public view returns (Tweet memory) {\r\n        return tweets[id];\r\n    }\r\n\r\n    function postTweet(string memory _content) public {\r\n        // Check to make sure string is empty or not\r\n        require(bytes(_content).length > 0);\r\n\r\n        tweetCount++;\r\n        tweets[tweetCount] = Tweet(\r\n            tweetCount,\r\n            _content,\r\n            block.timestamp,\r\n            0,\r\n            0,\r\n            payable(msg.sender)\r\n        );\r\n\r\n        emit TweetPosted(tweetCount, _content, block.timestamp, 0, 0, payable(msg.sender));\r\n    }\r\n\r\n    function likeTweet(uint _id) public {\r\n        require(_id > 0 && _id <= tweetCount);\r\n\r\n        Tweet memory _tweet = getTweet(_id);\r\n        _tweet.likes++;\r\n\r\n        tweets[_tweet.id] = _tweet;\r\n\r\n        emit TweetLiked(_tweet.id, _tweet.content, _tweet.timestamp, _tweet.likes, _tweet.tipAmount, _tweet.author);\r\n    }\r\n\r\n    function tipTweet(uint _id) public payable {\r\n        require(_id > 0 && _id <= tweetCount);\r\n\r\n        Tweet memory _tweet = getTweet(_id);\r\n        payable(address(_tweet.author)).transfer(msg.value);\r\n        _tweet.tipAmount = _tweet.tipAmount + msg.value;\r\n        \r\n        tweets[_id] = _tweet;\r\n\r\n        emit TweetTipped(_tweet.id, _tweet.content, _tweet.timestamp, _tweet.likes, _tweet.tipAmount, _tweet.author);\r\n    }\r\n}",
  "sourcePath": "C:\\Users\\akhil\\Projects\\TweeBle\\src\\contracts\\TweeBle.sol",
  "compiler": {
    "name": "solc",
    "version": "0.8.10+commit.fc410830.Emscripten.clang"
  },
  "schemaVersion": "3.4.3",
  "updatedAt": "2021-12-06T13:51:12.084Z",
  "networkType": "ethereum",
  "devdoc": {
    "kind": "dev",
    "methods": {},
    "version": 1
  },
  "userdoc": {
    "kind": "user",
    "methods": {},
    "version": 1
  }
}