{
  "contractName": "TweeBle",
  "abi": [
    {
      "anonymous": false,
      "inputs": [
        {
          "indexed": false,
          "internalType": "uint256",
          "name": "id",
          "type": "uint256"
        },
        {
          "indexed": false,
          "internalType": "string",
          "name": "content",
          "type": "string"
        },
        {
          "indexed": false,
          "internalType": "uint256",
          "name": "timestamp",
          "type": "uint256"
        },
        {
          "indexed": false,
          "internalType": "uint256",
          "name": "likes",
          "type": "uint256"
        },
        {
          "indexed": false,
          "internalType": "uint256",
          "name": "tipAmount",
          "type": "uint256"
        },
        {
          "indexed": false,
          "internalType": "address payable",
          "name": "author",
          "type": "address"
        }
      ],
      "name": "TweetLiked",
      "type": "event"
    },
    {
      "anonymous": false,
      "inputs": [
        {
          "indexed": false,
          "internalType": "uint256",
          "name": "id",
          "type": "uint256"
        },
        {
          "indexed": false,
          "internalType": "string",
          "name": "content",
          "type": "string"
        },
        {
          "indexed": false,
          "internalType": "uint256",
          "name": "timestamp",
          "type": "uint256"
        },
        {
          "indexed": false,
          "internalType": "uint256",
          "name": "likes",
          "type": "uint256"
        },
        {
          "indexed": false,
          "internalType": "uint256",
          "name": "tipAmount",
          "type": "uint256"
        },
        {
          "indexed": false,
          "internalType": "address payable",
          "name": "author",
          "type": "address"
        }
      ],
      "name": "TweetPosted",
      "type": "event"
    },
    {
      "anonymous": false,
      "inputs": [
        {
          "indexed": false,
          "internalType": "uint256",
          "name": "id",
          "type": "uint256"
        },
        {
          "indexed": false,
          "internalType": "string",
          "name": "content",
          "type": "string"
        },
        {
          "indexed": false,
          "internalType": "uint256",
          "name": "timestamp",
          "type": "uint256"
        },
        {
          "indexed": false,
          "internalType": "uint256",
          "name": "likes",
          "type": "uint256"
        },
        {
          "indexed": false,
          "internalType": "uint256",
          "name": "tipAmount",
          "type": "uint256"
        },
        {
          "indexed": false,
          "internalType": "address payable",
          "name": "author",
          "type": "address"
        }
      ],
      "name": "TweetTipped",
      "type": "event"
    },
    {
      "inputs": [],
      "name": "name",
      "outputs": [
        {
          "internalType": "string",
          "name": "",
          "type": "string"
        }
      ],
      "stateMutability": "view",
      "type": "function"
    },
    {
      "inputs": [],
      "name": "tweetCount",
      "outputs": [
        {
          "internalType": "uint256",
          "name": "",
          "type": "uint256"
        }
      ],
      "stateMutability": "view",
      "type": "function"
    },
    {
      "inputs": [
        {
          "internalType": "uint256",
          "name": "",
          "type": "uint256"
        }
      ],
      "name": "tweets",
      "outputs": [
        {
          "internalType": "uint256",
          "name": "id",
          "type": "uint256"
        },
        {
          "internalType": "string",
          "name": "content",
          "type": "string"
        },
        {
          "internalType": "uint256",
          "name": "timestamp",
          "type": "uint256"
        },
        {
          "internalType": "uint256",
          "name": "likes",
          "type": "uint256"
        },
        {
          "internalType": "uint256",
          "name": "tipAmount",
          "type": "uint256"
        },
        {
          "internalType": "address payable",
          "name": "author",
          "type": "address"
        }
      ],
      "stateMutability": "view",
      "type": "function"
    },
    {
      "inputs": [],
      "name": "getTweets",
      "outputs": [
        {
          "components": [
            {
              "internalType": "uint256",
              "name": "id",
              "type": "uint256"
            },
            {
              "internalType": "string",
              "name": "content",
              "type": "string"
            },
            {
              "internalType": "uint256",
              "name": "timestamp",
              "type": "uint256"
            },
            {
              "internalType": "uint256",
              "name": "likes",
              "type": "uint256"
            },
            {
              "internalType": "uint256",
              "name": "tipAmount",
              "type": "uint256"
            },
            {
              "internalType": "address payable",
              "name": "author",
              "type": "address"
            }
          ],
          "internalType": "struct TweeBle.Tweet[]",
          "name": "",
          "type": "tuple[]"
        }
      ],
      "stateMutability": "view",
      "type": "function"
    },
    {
      "inputs": [
        {
          "internalType": "uint256",
          "name": "id",
          "type": "uint256"
        }
      ],
      "name": "getTweet",
      "outputs": [
        {
          "components": [
            {
              "internalType": "uint256",
              "name": "id",
              "type": "uint256"
            },
            {
              "internalType": "string",
              "name": "content",
              "type": "string"
            },
            {
              "internalType": "uint256",
              "name": "timestamp",
              "type": "uint256"
            },
            {
              "internalType": "uint256",
              "name": "likes",
              "type": "uint256"
            },
            {
              "internalType": "uint256",
              "name": "tipAmount",
              "type": "uint256"
            },
            {
              "internalType": "address payable",
              "name": "author",
              "type": "address"
            }
          ],
          "internalType": "struct TweeBle.Tweet",
          "name": "",
          "type": "tuple"
        }
      ],
      "stateMutability": "view",
      "type": "function"
    },
    {
      "inputs": [
        {
          "internalType": "string",
          "name": "_content",
          "type": "string"
        }
      ],
      "name": "postTweet",
      "outputs": [],
      "stateMutability": "nonpayable",
      "type": "function"
    },
    {
      "inputs": [
        {
          "internalType": "uint256",
          "name": "_id",
          "type": "uint256"
        }
      ],
      "name": "likeTweet",
      "outputs": [],
      "stateMutability": "nonpayable",
      "type": "function"
    },
    {
      "inputs": [
        {
          "internalType": "uint256",
          "name": "_id",
          "type": "uint256"
        }
      ],
      "name": "tipTweet",
      "outputs": [],
      "stateMutability": "payable",
      "type": "function"
    }
  ],
  "bytecode": "0x60806040526040518060400160405280600781526020017f54776565426c650000000000000000000000000000000000000000000000000081525060009080519060200190620000519291906200006b565b5060006001553480156200006457600080fd5b5062000180565b82805462000079906200014a565b90600052602060002090601f0160209004810192826200009d5760008555620000e9565b82601f10620000b857805160ff1916838001178555620000e9565b82800160010185558215620000e9579182015b82811115620000e8578251825591602001919060010190620000cb565b5b509050620000f89190620000fc565b5090565b5b8082111562000117576000816000905550600101620000fd565b5090565b7f4e487b7100000000000000000000000000000000000000000000000000000000600052602260045260246000fd5b600060028204905060018216806200016357607f821691505b602082108114156200017a57620001796200011b565b5b50919050565b6112d480620001906000396000f3fe60806040526004361061007b5760003560e01c8063b3465fd41161004e578063b3465fd414610128578063c3ad5ecb14610144578063e8d857b014610181578063fc86741f146101c35761007b565b806306fdde03146100805780630cbc3dc4146100ab5780634a7782b3146100d45780635ffc6ceb146100ff575b600080fd5b34801561008c57600080fd5b506100956101ee565b6040516100a29190610aff565b60405180910390f35b3480156100b757600080fd5b506100d260048036038101906100cd9190610c6a565b61027c565b005b3480156100e057600080fd5b506100e96103d4565b6040516100f69190610ccc565b60405180910390f35b34801561010b57600080fd5b5061012660048036038101906101219190610d13565b6103da565b005b610142600480360381019061013d9190610d13565b61051c565b005b34801561015057600080fd5b5061016b60048036038101906101669190610d13565b6106a8565b6040516101789190610e63565b60405180910390f35b34801561018d57600080fd5b506101a860048036038101906101a39190610d13565b6107e5565b6040516101ba96959493929190610e94565b60405180910390f35b3480156101cf57600080fd5b506101d86108c9565b6040516101e59190611047565b60405180910390f35b600080546101fb90611098565b80601f016020809104026020016040519081016040528092919081815260200182805461022790611098565b80156102745780601f1061024957610100808354040283529160200191610274565b820191906000526020600020905b81548152906001019060200180831161025757829003601f168201915b505050505081565b600081511161028a57600080fd5b6001600081548092919061029d906110f9565b91905055506040518060c00160405280600154815260200182815260200142815260200160008152602001600081526020013373ffffffffffffffffffffffffffffffffffffffff16815250600260006001548152602001908152602001600020600082015181600001556020820151816001019080519060200190610324929190610977565b5060408201518160020155606082015181600301556080820151816004015560a08201518160050160006101000a81548173ffffffffffffffffffffffffffffffffffffffff021916908373ffffffffffffffffffffffffffffffffffffffff1602179055509050507fb2b09b347700809ebff0d5c9fa3b00dd6cde520ec5e5e863b12ac5b9f08457cc6001548242600080336040516103c996959493929190611187565b60405180910390a150565b60015481565b6000811180156103ec57506001548111155b6103f557600080fd5b6000610400826106a8565b9050806060018051809190610414906110f9565b81525050806002600083600001518152602001908152602001600020600082015181600001556020820151816001019080519060200190610456929190610977565b5060408201518160020155606082015181600301556080820151816004015560a08201518160050160006101000a81548173ffffffffffffffffffffffffffffffffffffffff021916908373ffffffffffffffffffffffffffffffffffffffff1602179055509050507fd97594b27da8ca89c8668580a2139fbd3032250e33b83a6737aaeab0132624d8816000015182602001518360400151846060015185608001518660a0015160405161051096959493929190610e94565b60405180910390a15050565b60008111801561052e57506001548111155b61053757600080fd5b6000610542826106a8565b90508060a0015173ffffffffffffffffffffffffffffffffffffffff166108fc349081150290604051600060405180830381858888f1935050505015801561058e573d6000803e3d6000fd5b5034816080015161059f91906111ef565b81608001818152505080600260008481526020019081526020016000206000820151816000015560208201518160010190805190602001906105e2929190610977565b5060408201518160020155606082015181600301556080820151816004015560a08201518160050160006101000a81548173ffffffffffffffffffffffffffffffffffffffff021916908373ffffffffffffffffffffffffffffffffffffffff1602179055509050507f0e8e7c2639465b69d6928c660853d42c9d195da3398713d7331e5c124cbd50d0816000015182602001518360400151846060015185608001518660a0015160405161069c96959493929190610e94565b60405180910390a15050565b6106b06109fd565b600260008381526020019081526020016000206040518060c0016040529081600082015481526020016001820180546106e890611098565b80601f016020809104026020016040519081016040528092919081815260200182805461071490611098565b80156107615780601f1061073657610100808354040283529160200191610761565b820191906000526020600020905b81548152906001019060200180831161074457829003601f168201915b505050505081526020016002820154815260200160038201548152602001600482015481526020016005820160009054906101000a900473ffffffffffffffffffffffffffffffffffffffff1673ffffffffffffffffffffffffffffffffffffffff1673ffffffffffffffffffffffffffffffffffffffff16815250509050919050565b600260205280600052604060002060009150905080600001549080600101805461080e90611098565b80601f016020809104026020016040519081016040528092919081815260200182805461083a90611098565b80156108875780601f1061085c57610100808354040283529160200191610887565b820191906000526020600020905b81548152906001019060200180831161086a57829003601f168201915b5050505050908060020154908060030154908060040154908060050160009054906101000a900473ffffffffffffffffffffffffffffffffffffffff16905086565b6060600060015467ffffffffffffffff8111156108e9576108e8610b3f565b5b60405190808252806020026020018201604052801561092257816020015b61090f6109fd565b8152602001906001900390816109075790505b509050600060015490505b6001811061096f5761093e816106a8565b82828151811061095157610950611245565b5b6020026020010181905250808061096790611274565b91505061092d565b508091505090565b82805461098390611098565b90600052602060002090601f0160209004810192826109a557600085556109ec565b82601f106109be57805160ff19168380011785556109ec565b828001600101855582156109ec579182015b828111156109eb5782518255916020019190600101906109d0565b5b5090506109f99190610a49565b5090565b6040518060c001604052806000815260200160608152602001600081526020016000815260200160008152602001600073ffffffffffffffffffffffffffffffffffffffff1681525090565b5b80821115610a62576000816000905550600101610a4a565b5090565b600081519050919050565b600082825260208201905092915050565b60005b83811015610aa0578082015181840152602081019050610a85565b83811115610aaf576000848401525b50505050565b6000601f19601f8301169050919050565b6000610ad182610a66565b610adb8185610a71565b9350610aeb818560208601610a82565b610af481610ab5565b840191505092915050565b60006020820190508181036000830152610b198184610ac6565b905092915050565b6000604051905090565b600080fd5b600080fd5b600080fd5b600080fd5b7f4e487b7100000000000000000000000000000000000000000000000000000000600052604160045260246000fd5b610b7782610ab5565b810181811067ffffffffffffffff82111715610b9657610b95610b3f565b5b80604052505050565b6000610ba9610b21565b9050610bb58282610b6e565b919050565b600067ffffffffffffffff821115610bd557610bd4610b3f565b5b610bde82610ab5565b9050602081019050919050565b82818337600083830152505050565b6000610c0d610c0884610bba565b610b9f565b905082815260208101848484011115610c2957610c28610b3a565b5b610c34848285610beb565b509392505050565b600082601f830112610c5157610c50610b35565b5b8135610c61848260208601610bfa565b91505092915050565b600060208284031215610c8057610c7f610b2b565b5b600082013567ffffffffffffffff811115610c9e57610c9d610b30565b5b610caa84828501610c3c565b91505092915050565b6000819050919050565b610cc681610cb3565b82525050565b6000602082019050610ce16000830184610cbd565b92915050565b610cf081610cb3565b8114610cfb57600080fd5b50565b600081359050610d0d81610ce7565b92915050565b600060208284031215610d2957610d28610b2b565b5b6000610d3784828501610cfe565b91505092915050565b610d4981610cb3565b82525050565b600082825260208201905092915050565b6000610d6b82610a66565b610d758185610d4f565b9350610d85818560208601610a82565b610d8e81610ab5565b840191505092915050565b600073ffffffffffffffffffffffffffffffffffffffff82169050919050565b6000610dc482610d99565b9050919050565b610dd481610db9565b82525050565b600060c083016000830151610df26000860182610d40565b5060208301518482036020860152610e0a8282610d60565b9150506040830151610e1f6040860182610d40565b506060830151610e326060860182610d40565b506080830151610e456080860182610d40565b5060a0830151610e5860a0860182610dcb565b508091505092915050565b60006020820190508181036000830152610e7d8184610dda565b905092915050565b610e8e81610db9565b82525050565b600060c082019050610ea96000830189610cbd565b8181036020830152610ebb8188610ac6565b9050610eca6040830187610cbd565b610ed76060830186610cbd565b610ee46080830185610cbd565b610ef160a0830184610e85565b979650505050505050565b600081519050919050565b600082825260208201905092915050565b6000819050602082019050919050565b600060c083016000830151610f406000860182610d40565b5060208301518482036020860152610f588282610d60565b9150506040830151610f6d6040860182610d40565b506060830151610f806060860182610d40565b506080830151610f936080860182610d40565b5060a0830151610fa660a0860182610dcb565b508091505092915050565b6000610fbd8383610f28565b905092915050565b6000602082019050919050565b6000610fdd82610efc565b610fe78185610f07565b935083602082028501610ff985610f18565b8060005b8581101561103557848403895281516110168582610fb1565b945061102183610fc5565b925060208a01995050600181019050610ffd565b50829750879550505050505092915050565b600060208201905081810360008301526110618184610fd2565b905092915050565b7f4e487b7100000000000000000000000000000000000000000000000000000000600052602260045260246000fd5b600060028204905060018216806110b057607f821691505b602082108114156110c4576110c3611069565b5b50919050565b7f4e487b7100000000000000000000000000000000000000000000000000000000600052601160045260246000fd5b600061110482610cb3565b91507fffffffffffffffffffffffffffffffffffffffffffffffffffffffffffffffff821415611137576111366110ca565b5b600182019050919050565b6000819050919050565b6000819050919050565b600061117161116c61116784611142565b61114c565b610cb3565b9050919050565b61118181611156565b82525050565b600060c08201905061119c6000830189610cbd565b81810360208301526111ae8188610ac6565b90506111bd6040830187610cbd565b6111ca6060830186611178565b6111d76080830185611178565b6111e460a0830184610e85565b979650505050505050565b60006111fa82610cb3565b915061120583610cb3565b9250827fffffffffffffffffffffffffffffffffffffffffffffffffffffffffffffffff0382111561123a576112396110ca565b5b828201905092915050565b7f4e487b7100000000000000000000000000000000000000000000000000000000600052603260045260246000fd5b600061127f82610cb3565b91506000821415611293576112926110ca565b5b60018203905091905056fea264697066735822122074b3095be5967016bdc72fd5235ffeaa68837d04800a7f972dda07d7f25f015164736f6c634300080a0033",
  "immutableReferences": {},
  "source": "// SPDX-License-Identifier: MIT\r\npragma solidity >=0.4.22 <0.9.0;\r\n\r\ncontract TweeBle {\r\n    string public name = \"TweeBle\";\r\n    uint256 public tweetCount = 0;\r\n    mapping(uint256 => Tweet) public tweets;\r\n\r\n    struct Tweet {\r\n        uint id;\r\n        string content;\r\n        uint256 timestamp;\r\n        uint likes;\r\n        uint256 tipAmount;\r\n        address payable author;\r\n    }\r\n\r\n    event TweetPosted(\r\n        uint id,\r\n        string content,\r\n        uint256 timestamp,\r\n        uint likes,\r\n        uint256 tipAmount,\r\n        address payable author\r\n    );\r\n\r\n    event TweetLiked(\r\n        uint id,\r\n        string content,\r\n        uint256 timestamp,\r\n        uint likes,\r\n        uint256 tipAmount,\r\n        address payable author\r\n    );\r\n\r\n    event TweetTipped(\r\n        uint id,\r\n        string content,\r\n        uint256 timestamp,\r\n        uint likes,\r\n        uint256 tipAmount,\r\n        address payable author\r\n    );\r\n\r\n    function getTweets() public view returns (Tweet[] memory) {\r\n        Tweet[] memory _tweets = new Tweet[](tweetCount);\r\n\r\n        for(uint i = tweetCount; i >= 1; i--) {\r\n            _tweets[i] = getTweet(i);\r\n        }\r\n\r\n        return _tweets;\r\n    }\r\n\r\n    function getTweet(uint id) public view returns (Tweet memory) {\r\n        return tweets[id];\r\n    }\r\n\r\n    function postTweet(string memory _content) public {\r\n        // Check to make sure string is empty or not\r\n        require(bytes(_content).length > 0);\r\n\r\n        tweetCount++;\r\n        tweets[tweetCount] = Tweet(\r\n            tweetCount,\r\n            _content,\r\n            block.timestamp,\r\n            0,\r\n            0,\r\n            payable(msg.sender)\r\n        );\r\n\r\n        emit TweetPosted(tweetCount, _content, block.timestamp, 0, 0, payable(msg.sender));\r\n    }\r\n\r\n    function likeTweet(uint _id) public {\r\n        require(_id > 0 && _id <= tweetCount);\r\n\r\n        Tweet memory _tweet = getTweet(_id);\r\n        _tweet.likes++;\r\n\r\n        tweets[_tweet.id] = _tweet;\r\n\r\n        emit TweetLiked(_tweet.id, _tweet.content, _tweet.timestamp, _tweet.likes, _tweet.tipAmount, _tweet.author);\r\n    }\r\n\r\n    function tipTweet(uint _id) public payable {\r\n        require(_id > 0 && _id <= tweetCount);\r\n\r\n        Tweet memory _tweet = getTweet(_id);\r\n        payable(address(_tweet.author)).transfer(msg.value);\r\n        _tweet.tipAmount = _tweet.tipAmount + msg.value;\r\n        \r\n        tweets[_id] = _tweet;\r\n\r\n        emit TweetTipped(_tweet.id, _tweet.content, _tweet.timestamp, _tweet.likes, _tweet.tipAmount, _tweet.author);\r\n    }\r\n}",
  "sourcePath": "C:\\Users\\Aryan Arora\\TruffleProjects\\TweeBle\\contracts\\TweeBle.sol",
  "compiler": {
    "name": "solc",
    "version": "0.8.10+commit.fc410830.Emscripten.clang"
  },
  "schemaVersion": "3.4.3",
  "updatedAt": "2021-12-06T08:56:24.219Z",
  "devdoc": {
    "kind": "dev",
    "methods": {},
    "version": 1
  },
  "userdoc": {
    "kind": "user",
    "methods": {},
    "version": 1
  }
}