{
  "contractName": "TweeBle",
  "abi": [
    {
      "anonymous": false,
      "inputs": [
        {
          "indexed": false,
          "internalType": "uint256",
          "name": "id",
          "type": "uint256"
        },
        {
          "indexed": false,
          "internalType": "string",
          "name": "content",
          "type": "string"
        },
        {
          "indexed": false,
          "internalType": "uint256",
          "name": "timestamp",
          "type": "uint256"
        },
        {
          "indexed": false,
          "internalType": "uint256",
          "name": "likes",
          "type": "uint256"
        },
        {
          "indexed": false,
          "internalType": "uint256",
          "name": "tipAmount",
          "type": "uint256"
        },
        {
          "indexed": false,
          "internalType": "address payable",
          "name": "author",
          "type": "address"
        }
      ],
      "name": "TweetLiked",
      "type": "event"
    },
    {
      "anonymous": false,
      "inputs": [
        {
          "indexed": false,
          "internalType": "uint256",
          "name": "id",
          "type": "uint256"
        },
        {
          "indexed": false,
          "internalType": "string",
          "name": "content",
          "type": "string"
        },
        {
          "indexed": false,
          "internalType": "uint256",
          "name": "timestamp",
          "type": "uint256"
        },
        {
          "indexed": false,
          "internalType": "uint256",
          "name": "likes",
          "type": "uint256"
        },
        {
          "indexed": false,
          "internalType": "uint256",
          "name": "tipAmount",
          "type": "uint256"
        },
        {
          "indexed": false,
          "internalType": "address payable",
          "name": "author",
          "type": "address"
        }
      ],
      "name": "TweetPosted",
      "type": "event"
    },
    {
      "anonymous": false,
      "inputs": [
        {
          "indexed": false,
          "internalType": "uint256",
          "name": "id",
          "type": "uint256"
        },
        {
          "indexed": false,
          "internalType": "string",
          "name": "content",
          "type": "string"
        },
        {
          "indexed": false,
          "internalType": "uint256",
          "name": "timestamp",
          "type": "uint256"
        },
        {
          "indexed": false,
          "internalType": "uint256",
          "name": "likes",
          "type": "uint256"
        },
        {
          "indexed": false,
          "internalType": "uint256",
          "name": "tipAmount",
          "type": "uint256"
        },
        {
          "indexed": false,
          "internalType": "address payable",
          "name": "author",
          "type": "address"
        }
      ],
      "name": "TweetTipped",
      "type": "event"
    },
    {
      "inputs": [],
      "name": "name",
      "outputs": [
        {
          "internalType": "string",
          "name": "",
          "type": "string"
        }
      ],
      "stateMutability": "view",
      "type": "function",
      "constant": true
    },
    {
      "inputs": [],
      "name": "tweetCount",
      "outputs": [
        {
          "internalType": "uint256",
          "name": "",
          "type": "uint256"
        }
      ],
      "stateMutability": "view",
      "type": "function",
      "constant": true
    },
    {
      "inputs": [
        {
          "internalType": "uint256",
          "name": "",
          "type": "uint256"
        }
      ],
      "name": "tweets",
      "outputs": [
        {
          "internalType": "uint256",
          "name": "id",
          "type": "uint256"
        },
        {
          "internalType": "string",
          "name": "content",
          "type": "string"
        },
        {
          "internalType": "uint256",
          "name": "timestamp",
          "type": "uint256"
        },
        {
          "internalType": "uint256",
          "name": "likes",
          "type": "uint256"
        },
        {
          "internalType": "uint256",
          "name": "tipAmount",
          "type": "uint256"
        },
        {
          "internalType": "address payable",
          "name": "author",
          "type": "address"
        }
      ],
      "stateMutability": "view",
      "type": "function",
      "constant": true
    },
    {
      "inputs": [
        {
          "internalType": "uint256",
          "name": "id",
          "type": "uint256"
        }
      ],
      "name": "getTweet",
      "outputs": [
        {
          "internalType": "string",
          "name": "",
          "type": "string"
        }
      ],
      "stateMutability": "view",
      "type": "function",
      "constant": true
    },
    {
      "inputs": [
        {
          "internalType": "string",
          "name": "_content",
          "type": "string"
        }
      ],
      "name": "postTweet",
      "outputs": [],
      "stateMutability": "nonpayable",
      "type": "function"
    }
  ],
  "bytecode": "0x60806040526040518060400160405280600781526020017f54776565426c65000000000000000000000000000000000000000000000000008152506000908051906020019061004f929190610067565b50600060015534801561006157600080fd5b5061016b565b82805461007390610139565b90600052602060002090601f01602090048101928261009557600085556100dc565b82601f106100ae57805160ff19168380011785556100dc565b828001600101855582156100dc579182015b828111156100db5782518255916020019190600101906100c0565b5b5090506100e991906100ed565b5090565b5b808211156101065760008160009055506001016100ee565b5090565b7f4e487b7100000000000000000000000000000000000000000000000000000000600052602260045260246000fd5b6000600282049050600182168061015157607f821691505b602082108114156101655761016461010a565b5b50919050565b610a738061017a6000396000f3fe608060405234801561001057600080fd5b50600436106100575760003560e01c806306fdde031461005c5780630cbc3dc41461007a5780634a7782b314610096578063c3ad5ecb146100b4578063e8d857b0146100e4575b600080fd5b610064610119565b60405161007191906105cd565b60405180910390f35b610094600480360381019061008f9190610738565b6101a7565b005b61009e6102ff565b6040516100ab919061079a565b60405180910390f35b6100ce60048036038101906100c991906107e1565b610305565b6040516100db91906105cd565b60405180910390f35b6100fe60048036038101906100f991906107e1565b6103ad565b6040516101109695949392919061084f565b60405180910390f35b60008054610126906108e6565b80601f0160208091040260200160405190810160405280929190818152602001828054610152906108e6565b801561019f5780601f106101745761010080835404028352916020019161019f565b820191906000526020600020905b81548152906001019060200180831161018257829003601f168201915b505050505081565b60008151116101b557600080fd5b600160008154809291906101c890610947565b91905055506040518060c00160405280600154815260200182815260200142815260200160008152602001600081526020013373ffffffffffffffffffffffffffffffffffffffff1681525060026000600154815260200190815260200160002060008201518160000155602082015181600101908051906020019061024f929190610491565b5060408201518160020155606082015181600301556080820151816004015560a08201518160050160006101000a81548173ffffffffffffffffffffffffffffffffffffffff021916908373ffffffffffffffffffffffffffffffffffffffff1602179055509050507fb2b09b347700809ebff0d5c9fa3b00dd6cde520ec5e5e863b12ac5b9f08457cc6001548242600080336040516102f4969594939291906109d5565b60405180910390a150565b60015481565b6060600260008381526020019081526020016000206001018054610328906108e6565b80601f0160208091040260200160405190810160405280929190818152602001828054610354906108e6565b80156103a15780601f10610376576101008083540402835291602001916103a1565b820191906000526020600020905b81548152906001019060200180831161038457829003601f168201915b50505050509050919050565b60026020528060005260406000206000915090508060000154908060010180546103d6906108e6565b80601f0160208091040260200160405190810160405280929190818152602001828054610402906108e6565b801561044f5780601f106104245761010080835404028352916020019161044f565b820191906000526020600020905b81548152906001019060200180831161043257829003601f168201915b5050505050908060020154908060030154908060040154908060050160009054906101000a900473ffffffffffffffffffffffffffffffffffffffff16905086565b82805461049d906108e6565b90600052602060002090601f0160209004810192826104bf5760008555610506565b82601f106104d857805160ff1916838001178555610506565b82800160010185558215610506579182015b828111156105055782518255916020019190600101906104ea565b5b5090506105139190610517565b5090565b5b80821115610530576000816000905550600101610518565b5090565b600081519050919050565b600082825260208201905092915050565b60005b8381101561056e578082015181840152602081019050610553565b8381111561057d576000848401525b50505050565b6000601f19601f8301169050919050565b600061059f82610534565b6105a9818561053f565b93506105b9818560208601610550565b6105c281610583565b840191505092915050565b600060208201905081810360008301526105e78184610594565b905092915050565b6000604051905090565b600080fd5b600080fd5b600080fd5b600080fd5b7f4e487b7100000000000000000000000000000000000000000000000000000000600052604160045260246000fd5b61064582610583565b810181811067ffffffffffffffff821117156106645761066361060d565b5b80604052505050565b60006106776105ef565b9050610683828261063c565b919050565b600067ffffffffffffffff8211156106a3576106a261060d565b5b6106ac82610583565b9050602081019050919050565b82818337600083830152505050565b60006106db6106d684610688565b61066d565b9050828152602081018484840111156106f7576106f6610608565b5b6107028482856106b9565b509392505050565b600082601f83011261071f5761071e610603565b5b813561072f8482602086016106c8565b91505092915050565b60006020828403121561074e5761074d6105f9565b5b600082013567ffffffffffffffff81111561076c5761076b6105fe565b5b6107788482850161070a565b91505092915050565b6000819050919050565b61079481610781565b82525050565b60006020820190506107af600083018461078b565b92915050565b6107be81610781565b81146107c957600080fd5b50565b6000813590506107db816107b5565b92915050565b6000602082840312156107f7576107f66105f9565b5b6000610805848285016107cc565b91505092915050565b600073ffffffffffffffffffffffffffffffffffffffff82169050919050565b60006108398261080e565b9050919050565b6108498161082e565b82525050565b600060c082019050610864600083018961078b565b81810360208301526108768188610594565b9050610885604083018761078b565b610892606083018661078b565b61089f608083018561078b565b6108ac60a0830184610840565b979650505050505050565b7f4e487b7100000000000000000000000000000000000000000000000000000000600052602260045260246000fd5b600060028204905060018216806108fe57607f821691505b60208210811415610912576109116108b7565b5b50919050565b7f4e487b7100000000000000000000000000000000000000000000000000000000600052601160045260246000fd5b600061095282610781565b91507fffffffffffffffffffffffffffffffffffffffffffffffffffffffffffffffff82141561098557610984610918565b5b600182019050919050565b6000819050919050565b6000819050919050565b60006109bf6109ba6109b584610990565b61099a565b610781565b9050919050565b6109cf816109a4565b82525050565b600060c0820190506109ea600083018961078b565b81810360208301526109fc8188610594565b9050610a0b604083018761078b565b610a1860608301866109c6565b610a2560808301856109c6565b610a3260a0830184610840565b97965050505050505056fea2646970667358221220cbb3fe317807cf777dd351de0f1782b67b128ad49b132f6c1af2355139fe783664736f6c634300080a0033",
  "immutableReferences": {},
  "source": "// SPDX-License-Identifier: MIT\r\npragma solidity >=0.4.22 <0.9.0;\r\n\r\ncontract TweeBle {\r\n    string public name = \"TweeBle\";\r\n    uint256 public tweetCount = 0;\r\n    mapping(uint256 => Tweet) public tweets;\r\n\r\n    struct Tweet {\r\n        uint id;\r\n        string content;\r\n        uint256 timestamp;\r\n        uint256 likes;\r\n        uint256 tipAmount;\r\n        address payable author;\r\n    }\r\n\r\n    event TweetPosted(\r\n        uint id,\r\n        string content,\r\n        uint256 timestamp,\r\n        uint256 likes,\r\n        uint256 tipAmount,\r\n        address payable author\r\n    );\r\n\r\n    event TweetLiked(\r\n        uint id,\r\n        string content,\r\n        uint256 timestamp,\r\n        uint256 likes,\r\n        uint256 tipAmount,\r\n        address payable author\r\n    );\r\n\r\n    event TweetTipped(\r\n        uint id,\r\n        string content,\r\n        uint256 timestamp,\r\n        uint256 likes,\r\n        uint256 tipAmount,\r\n        address payable author\r\n    );\r\n\r\n    function getTweet(uint id) public view returns (string memory) {\r\n        return tweets[id].content;\r\n    }\r\n\r\n    function postTweet(string memory _content) public {\r\n        // Check to make sure string is empty or not\r\n        require(bytes(_content).length > 0);\r\n\r\n        tweetCount++;\r\n        tweets[tweetCount] = Tweet(\r\n            tweetCount,\r\n            _content,\r\n            block.timestamp,\r\n            0,\r\n            0,\r\n            payable(msg.sender)\r\n        );\r\n\r\n        emit TweetPosted(tweetCount, _content, block.timestamp, 0, 0, payable(msg.sender));\r\n    }\r\n}\r\n    ",
  "sourcePath": "C:\\Users\\Aryan Arora\\TruffleProjects\\TweeBle\\contracts\\TweeBle.sol",
  "compiler": {
    "name": "solc",
    "version": "0.8.10+commit.fc410830.Emscripten.clang"
  },
  "schemaVersion": "3.4.3",
  "updatedAt": "2021-12-06T06:37:24.618Z",
  "networkType": "ethereum",
  "devdoc": {
    "kind": "dev",
    "methods": {},
    "version": 1
  },
  "userdoc": {
    "kind": "user",
    "methods": {},
    "version": 1
  }
}